{
  "_format": "hh-sol-artifact-1",
  "contractName": "Escrow",
  "sourceName": "contracts/Escrow.sol",
  "abi": [
    {
      "inputs": [
        {
          "internalType": "address",
          "name": "_verifierContractAddress",
          "type": "address"
        }
      ],
      "stateMutability": "nonpayable",
      "type": "constructor"
    },
    {
      "inputs": [
        {
          "internalType": "string",
          "name": "_reason",
          "type": "string"
        }
      ],
      "name": "OperationError",
      "type": "error"
    },
    {
      "inputs": [
        {
          "internalType": "string",
          "name": "_reason",
          "type": "string"
        }
      ],
      "name": "ValidationError",
      "type": "error"
    },
    {
      "anonymous": false,
      "inputs": [
        {
          "indexed": true,
          "internalType": "uint256",
          "name": "transactionId",
          "type": "uint256"
        },
        {
          "indexed": true,
          "internalType": "address",
          "name": "buyer",
          "type": "address"
        },
        {
          "indexed": true,
          "internalType": "address",
          "name": "seller",
          "type": "address"
        },
        {
          "indexed": false,
          "internalType": "uint256",
          "name": "amount",
          "type": "uint256"
        }
      ],
      "name": "EscrowCreated",
      "type": "event"
    },
    {
      "anonymous": false,
      "inputs": [
        {
          "indexed": true,
          "internalType": "uint256",
          "name": "transactionId",
          "type": "uint256"
        }
      ],
      "name": "EscrowLocked",
      "type": "event"
    },
    {
      "anonymous": false,
      "inputs": [
        {
          "indexed": true,
          "internalType": "uint256",
          "name": "transactionId",
          "type": "uint256"
        }
      ],
      "name": "EscrowReleased",
      "type": "event"
    },
    {
      "inputs": [],
      "name": "arbitrator",
      "outputs": [
        {
          "internalType": "address",
          "name": "",
          "type": "address"
        }
      ],
      "stateMutability": "view",
      "type": "function"
    },
    {
      "inputs": [
        {
          "internalType": "address",
          "name": "buyer",
          "type": "address"
        },
        {
          "internalType": "uint256",
          "name": "amount",
          "type": "uint256"
        },
        {
          "internalType": "contract IERC20",
          "name": "tokenAddress",
          "type": "address"
        }
      ],
      "name": "createEscrow",
      "outputs": [
        {
          "internalType": "uint256",
          "name": "txnId",
          "type": "uint256"
        }
      ],
      "stateMutability": "payable",
      "type": "function"
    },
    {
      "inputs": [
        {
          "internalType": "uint256",
          "name": "transactionId",
          "type": "uint256"
        }
      ],
      "name": "getEscrowStatus",
      "outputs": [
        {
          "internalType": "enum Escrow.EscrowStatus",
          "name": "",
          "type": "uint8"
        }
      ],
      "stateMutability": "view",
      "type": "function"
    },
    {
      "inputs": [
        {
          "internalType": "uint256",
          "name": "transactionId",
          "type": "uint256"
        }
      ],
      "name": "lockEscrow",
      "outputs": [],
      "stateMutability": "nonpayable",
      "type": "function"
    },
    {
      "inputs": [
        {
          "internalType": "uint256",
          "name": "transactionId",
          "type": "uint256"
        },
        {
          "internalType": "bytes",
          "name": "_proof",
          "type": "bytes"
        },
        {
          "internalType": "bytes32[]",
          "name": "_publicInputs",
          "type": "bytes32[]"
        }
      ],
      "name": "releaseEscrow",
      "outputs": [],
      "stateMutability": "nonpayable",
      "type": "function"
    },
    {
      "inputs": [],
      "name": "transactionCounter",
      "outputs": [
        {
          "internalType": "uint256",
          "name": "",
          "type": "uint256"
        }
      ],
      "stateMutability": "view",
      "type": "function"
    }
  ],
  "bytecode": "0x608060405234801561001057600080fd5b50604051610fbd380380610fbd83398101604081905261002f91610067565b60018054336001600160a01b0319918216179091556000600281905580549091166001600160a01b0392909216919091179055610097565b60006020828403121561007957600080fd5b81516001600160a01b038116811461009057600080fd5b9392505050565b610f17806100a66000396000f3fe6080604052600436106100655760003560e01c80636cc6cde1116100435780636cc6cde11461010d5780638e4928af1461015f578063b6d6806c1461017f57600080fd5b806314e887e81461006a5780632d9d359b14610093578063345460cd146100b5575b600080fd5b34801561007657600080fd5b5061008060025481565b6040519081526020015b60405180910390f35b34801561009f57600080fd5b506100b36100ae366004610be9565b610192565b005b3480156100c157600080fd5b506101006100d0366004610cbe565b60009081526005602052604090206003015474010000000000000000000000000000000000000000900460ff1690565b60405161008a9190610d06565b34801561011957600080fd5b5060015461013a9073ffffffffffffffffffffffffffffffffffffffff1681565b60405173ffffffffffffffffffffffffffffffffffffffff909116815260200161008a565b34801561016b57600080fd5b506100b361017a366004610cbe565b6106aa565b61008061018d366004610d6c565b610735565b61019d856001610a5f565b6000858152600560205260409020805460029091015473ffffffffffffffffffffffffffffffffffffffff9091169033821461023a576040517fa1b63ceb00000000000000000000000000000000000000000000000000000000815260206004820152601d60248201527f457363726f77206973204e4f542041535349474e454420746f20796f7500000060448201526064015b60405180910390fd5b600160008881526005602052604090206003015474010000000000000000000000000000000000000000900460ff16600481111561027a5761027a610cd7565b146102e1576040517fa1b63ceb00000000000000000000000000000000000000000000000000000000815260206004820152601060248201527f457363726f77206973204c4f434b4544000000000000000000000000000000006044820152606401610231565b600260008881526005602052604090206003015474010000000000000000000000000000000000000000900460ff16600481111561032157610321610cd7565b14610388576040517fa1b63ceb00000000000000000000000000000000000000000000000000000000815260206004820152601860248201527f457363726f7720686173206265656e2052454c454153454400000000000000006044820152606401610231565b6004868660405161039a929190610dae565b9081526040519081900360200190205460ff161515600114610418576040517fa1b63ceb00000000000000000000000000000000000000000000000000000000815260206004820152601a60248201527f457363726f772050524f4f4620686173206265656e20555345440000000000006044820152606401610231565b600080546040517fea50d0e400000000000000000000000000000000000000000000000000000000815273ffffffffffffffffffffffffffffffffffffffff9091169063ea50d0e490610475908a908a908a908a90600401610dbe565b602060405180830381865afa158015610492573d6000803e3d6000fd5b505050506040513d601f19601f820116820180604052508101906104b69190610e59565b90506001600488886040516104cc929190610dae565b90815260405190819003602001902080549115157fffffffffffffffffffffffffffffffffffffffffffffffffffffffffffffff009092169190911790556003805490600061051a83610e82565b909155505060008881526005602052604090206003015473ffffffffffffffffffffffffffffffffffffffff168115610617576040517fa9059cbb00000000000000000000000000000000000000000000000000000000815273ffffffffffffffffffffffffffffffffffffffff85811660048301526024820185905282169063a9059cbb906044016020604051808303816000875af11580156105c2573d6000803e3d6000fd5b505050506040513d601f19601f820116820180604052508101906105e69190610e59565b5060405189907f69833829d5691ae09424af7d16f73adf033451149ea9c2fc6fcb4c44108eef6790600090a261069f565b6040517f38ef8b0c00000000000000000000000000000000000000000000000000000000815260206004820152602760248201527f566572696669636174696f6e206f662070726f6f6620616e6420696e7075747360448201527f206661696c6564000000000000000000000000000000000000000000000000006064820152608401610231565b505050505050505050565b6106b2610b40565b6106bd816001610a5f565b60008181526005602052604080822060030180547fffffffffffffffffffffff00ffffffffffffffffffffffffffffffffffffffff16740100000000000000000000000000000000000000001790555182917f3f1af70a9eb954272c173cdd855f3eeca90469e9cfb7b48f44e46ae8d174e27291a250565b6002805460009133919081908461074b83610e82565b90915550506040517f23b872dd00000000000000000000000000000000000000000000000000000000815273ffffffffffffffffffffffffffffffffffffffff8381166004830152878116602483015260448201879052600091908616906323b872dd906064016020604051808303816000875af11580156107d1573d6000803e3d6000fd5b505050506040513d601f19601f820116820180604052508101906107f59190610e59565b905080156109cd576040518060a001604052808873ffffffffffffffffffffffffffffffffffffffff1681526020018473ffffffffffffffffffffffffffffffffffffffff1681526020013481526020018673ffffffffffffffffffffffffffffffffffffffff1681526020016000600481111561087557610875610cd7565b9052600083815260056020908152604091829020835181547fffffffffffffffffffffffff000000000000000000000000000000000000000090811673ffffffffffffffffffffffffffffffffffffffff92831617835592850151600183018054851691831691909117905592840151600282015560608401516003820180549384169190941690811784556080850151919391927fffffffffffffffffffffff00000000000000000000000000000000000000000016177401000000000000000000000000000000000000000083600481111561095557610955610cd7565b02179055509050508193508273ffffffffffffffffffffffffffffffffffffffff168773ffffffffffffffffffffffffffffffffffffffff16837f9405ad0a6208539879349284d71265479b1623846f70303da1f9890d6e8c10a7346040516109c091815260200190565b60405180910390a4610a55565b6040517f38ef8b0c00000000000000000000000000000000000000000000000000000000815260206004820152602a60248201527f4661696c656420746f207472616e7366657220746f6b656e20696e746f20746860448201527f6520636f6e7472616374000000000000000000000000000000000000000000006064820152608401610231565b5050509392505050565b806004811115610a7157610a71610cd7565b60008381526005602052604090206003015474010000000000000000000000000000000000000000900460ff166004811115610aaf57610aaf610cd7565b14610b3c576040517fa1b63ceb00000000000000000000000000000000000000000000000000000000815260206004820152602960248201527f5472616e73616374696f6e206973206e6f7420696e207468652072657175697260448201527f65642073746174652e00000000000000000000000000000000000000000000006064820152608401610231565b5050565b60015473ffffffffffffffffffffffffffffffffffffffff163314610be7576040517fa1b63ceb00000000000000000000000000000000000000000000000000000000815260206004820152602c60248201527f4f6e6c79207468652061726269747261746f722063616e20706572666f726d2060448201527f7468697320616374696f6e2e00000000000000000000000000000000000000006064820152608401610231565b565b600080600080600060608688031215610c0157600080fd5b85359450602086013567ffffffffffffffff80821115610c2057600080fd5b818801915088601f830112610c3457600080fd5b813581811115610c4357600080fd5b896020828501011115610c5557600080fd5b602083019650809550506040880135915080821115610c7357600080fd5b818801915088601f830112610c8757600080fd5b813581811115610c9657600080fd5b8960208260051b8501011115610cab57600080fd5b9699959850939650602001949392505050565b600060208284031215610cd057600080fd5b5035919050565b7f4e487b7100000000000000000000000000000000000000000000000000000000600052602160045260246000fd5b6020810160058310610d41577f4e487b7100000000000000000000000000000000000000000000000000000000600052602160045260246000fd5b91905290565b73ffffffffffffffffffffffffffffffffffffffff81168114610d6957600080fd5b50565b600080600060608486031215610d8157600080fd5b8335610d8c81610d47565b9250602084013591506040840135610da381610d47565b809150509250925092565b8183823760009101908152919050565b604081528360408201528385606083013760006060858301015260007fffffffffffffffffffffffffffffffffffffffffffffffffffffffffffffffe0601f860116820160608382030160208401528360608201527f07ffffffffffffffffffffffffffffffffffffffffffffffffffffffffffffff841115610e4057600080fd5b8360051b80866080840137016080019695505050505050565b600060208284031215610e6b57600080fd5b81518015158114610e7b57600080fd5b9392505050565b60007fffffffffffffffffffffffffffffffffffffffffffffffffffffffffffffffff8203610eda577f4e487b7100000000000000000000000000000000000000000000000000000000600052601160045260246000fd5b506001019056fea2646970667358221220eae322b3897db03176be2b3a649578dca972d8d0a8578a00748771526398fc4264736f6c63430008180033",
  "linkReferences": {},
  "deployedLinkReferences": {}
}