{
  "_format": "hh-sol-artifact-1",
  "contractName": "MyToken",
  "sourceName": "contracts/Token.sol",
  "abi": [
    {
      "inputs": [
        {
          "internalType": "string",
          "name": "_name",
          "type": "string"
        },
        {
          "internalType": "string",
          "name": "_symbol",
          "type": "string"
        }
      ],
      "stateMutability": "nonpayable",
      "type": "constructor"
    },
    {
      "inputs": [
        {
          "internalType": "address",
          "name": "spender",
          "type": "address"
        },
        {
          "internalType": "uint256",
          "name": "allowance",
          "type": "uint256"
        },
        {
          "internalType": "uint256",
          "name": "needed",
          "type": "uint256"
        }
      ],
      "name": "ERC20InsufficientAllowance",
      "type": "error"
    },
    {
      "inputs": [
        {
          "internalType": "address",
          "name": "sender",
          "type": "address"
        },
        {
          "internalType": "uint256",
          "name": "balance",
          "type": "uint256"
        },
        {
          "internalType": "uint256",
          "name": "needed",
          "type": "uint256"
        }
      ],
      "name": "ERC20InsufficientBalance",
      "type": "error"
    },
    {
      "inputs": [
        {
          "internalType": "address",
          "name": "approver",
          "type": "address"
        }
      ],
      "name": "ERC20InvalidApprover",
      "type": "error"
    },
    {
      "inputs": [
        {
          "internalType": "address",
          "name": "receiver",
          "type": "address"
        }
      ],
      "name": "ERC20InvalidReceiver",
      "type": "error"
    },
    {
      "inputs": [
        {
          "internalType": "address",
          "name": "sender",
          "type": "address"
        }
      ],
      "name": "ERC20InvalidSender",
      "type": "error"
    },
    {
      "inputs": [
        {
          "internalType": "address",
          "name": "spender",
          "type": "address"
        }
      ],
      "name": "ERC20InvalidSpender",
      "type": "error"
    },
    {
      "anonymous": false,
      "inputs": [
        {
          "indexed": true,
          "internalType": "address",
          "name": "owner",
          "type": "address"
        },
        {
          "indexed": true,
          "internalType": "address",
          "name": "spender",
          "type": "address"
        },
        {
          "indexed": false,
          "internalType": "uint256",
          "name": "value",
          "type": "uint256"
        }
      ],
      "name": "Approval",
      "type": "event"
    },
    {
      "anonymous": false,
      "inputs": [
        {
          "indexed": true,
          "internalType": "address",
          "name": "from",
          "type": "address"
        },
        {
          "indexed": true,
          "internalType": "address",
          "name": "to",
          "type": "address"
        },
        {
          "indexed": false,
          "internalType": "uint256",
          "name": "value",
          "type": "uint256"
        }
      ],
      "name": "Transfer",
      "type": "event"
    },
    {
      "inputs": [
        {
          "internalType": "address",
          "name": "owner",
          "type": "address"
        },
        {
          "internalType": "address",
          "name": "spender",
          "type": "address"
        }
      ],
      "name": "allowance",
      "outputs": [
        {
          "internalType": "uint256",
          "name": "",
          "type": "uint256"
        }
      ],
      "stateMutability": "view",
      "type": "function"
    },
    {
      "inputs": [
        {
          "internalType": "address",
          "name": "spender",
          "type": "address"
        },
        {
          "internalType": "uint256",
          "name": "value",
          "type": "uint256"
        }
      ],
      "name": "approve",
      "outputs": [
        {
          "internalType": "bool",
          "name": "",
          "type": "bool"
        }
      ],
      "stateMutability": "nonpayable",
      "type": "function"
    },
    {
      "inputs": [
        {
          "internalType": "address",
          "name": "account",
          "type": "address"
        }
      ],
      "name": "balanceOf",
      "outputs": [
        {
          "internalType": "uint256",
          "name": "",
          "type": "uint256"
        }
      ],
      "stateMutability": "view",
      "type": "function"
    },
    {
      "inputs": [
        {
          "internalType": "uint256",
          "name": "amount",
          "type": "uint256"
        }
      ],
      "name": "burn",
      "outputs": [],
      "stateMutability": "nonpayable",
      "type": "function"
    },
    {
      "inputs": [],
      "name": "decimals",
      "outputs": [
        {
          "internalType": "uint8",
          "name": "",
          "type": "uint8"
        }
      ],
      "stateMutability": "view",
      "type": "function"
    },
    {
      "inputs": [
        {
          "internalType": "address",
          "name": "to",
          "type": "address"
        },
        {
          "internalType": "uint256",
          "name": "amount",
          "type": "uint256"
        }
      ],
      "name": "mint",
      "outputs": [],
      "stateMutability": "nonpayable",
      "type": "function"
    },
    {
      "inputs": [],
      "name": "name",
      "outputs": [
        {
          "internalType": "string",
          "name": "",
          "type": "string"
        }
      ],
      "stateMutability": "view",
      "type": "function"
    },
    {
      "inputs": [],
      "name": "owner",
      "outputs": [
        {
          "internalType": "address",
          "name": "",
          "type": "address"
        }
      ],
      "stateMutability": "view",
      "type": "function"
    },
    {
      "inputs": [],
      "name": "symbol",
      "outputs": [
        {
          "internalType": "string",
          "name": "",
          "type": "string"
        }
      ],
      "stateMutability": "view",
      "type": "function"
    },
    {
      "inputs": [],
      "name": "totalSupply",
      "outputs": [
        {
          "internalType": "uint256",
          "name": "",
          "type": "uint256"
        }
      ],
      "stateMutability": "view",
      "type": "function"
    },
    {
      "inputs": [
        {
          "internalType": "address",
          "name": "to",
          "type": "address"
        },
        {
          "internalType": "uint256",
          "name": "amount",
          "type": "uint256"
        }
      ],
      "name": "transfer",
      "outputs": [
        {
          "internalType": "bool",
          "name": "",
          "type": "bool"
        }
      ],
      "stateMutability": "nonpayable",
      "type": "function"
    },
    {
      "inputs": [
        {
          "internalType": "address",
          "name": "sender",
          "type": "address"
        },
        {
          "internalType": "address",
          "name": "recipient",
          "type": "address"
        },
        {
          "internalType": "uint256",
          "name": "amount",
          "type": "uint256"
        }
      ],
      "name": "transferFrom",
      "outputs": [
        {
          "internalType": "bool",
          "name": "",
          "type": "bool"
        }
      ],
      "stateMutability": "nonpayable",
      "type": "function"
    }
  ],
  "bytecode": "0x60806040523480156200001157600080fd5b506040516200122e3803806200122e8339810160408190526200003491620002e0565b81816003620000448382620003db565b506004620000538282620003db565b5050600580546001600160a01b031916339081179091556200009b915062000079601290565b6200008690600a620005bc565b6200009590620f4240620005d4565b620000a3565b505062000604565b6001600160a01b038216620000d35760405163ec442f0560e01b8152600060048201526024015b60405180910390fd5b620000e160008383620000e5565b5050565b6001600160a01b03831662000114578060026000828254620001089190620005ee565b90915550620001889050565b6001600160a01b03831660009081526020819052604090205481811015620001695760405163391434e360e21b81526001600160a01b03851660048201526024810182905260448101839052606401620000ca565b6001600160a01b03841660009081526020819052604090209082900390555b6001600160a01b038216620001a657600280548290039055620001c5565b6001600160a01b03821660009081526020819052604090208054820190555b816001600160a01b0316836001600160a01b03167fddf252ad1be2c89b69c2b068fc378daa952ba7f163c4a11628f55a4df523b3ef836040516200020b91815260200190565b60405180910390a3505050565b634e487b7160e01b600052604160045260246000fd5b600082601f8301126200024057600080fd5b81516001600160401b03808211156200025d576200025d62000218565b604051601f8301601f19908116603f0116810190828211818310171562000288576200028862000218565b8160405283815260209250866020858801011115620002a657600080fd5b600091505b83821015620002ca5785820183015181830184015290820190620002ab565b6000602085830101528094505050505092915050565b60008060408385031215620002f457600080fd5b82516001600160401b03808211156200030c57600080fd5b6200031a868387016200022e565b935060208501519150808211156200033157600080fd5b5062000340858286016200022e565b9150509250929050565b600181811c908216806200035f57607f821691505b6020821081036200038057634e487b7160e01b600052602260045260246000fd5b50919050565b601f821115620003d6576000816000526020600020601f850160051c81016020861015620003b15750805b601f850160051c820191505b81811015620003d257828155600101620003bd565b5050505b505050565b81516001600160401b03811115620003f757620003f762000218565b6200040f816200040884546200034a565b8462000386565b602080601f8311600181146200044757600084156200042e5750858301515b600019600386901b1c1916600185901b178555620003d2565b600085815260208120601f198616915b82811015620004785788860151825594840194600190910190840162000457565b5085821015620004975787850151600019600388901b60f8161c191681555b5050505050600190811b01905550565b634e487b7160e01b600052601160045260246000fd5b600181815b80851115620004fe578160001904821115620004e257620004e2620004a7565b80851615620004f057918102915b93841c9390800290620004c2565b509250929050565b6000826200051757506001620005b6565b816200052657506000620005b6565b81600181146200053f57600281146200054a576200056a565b6001915050620005b6565b60ff8411156200055e576200055e620004a7565b50506001821b620005b6565b5060208310610133831016604e8410600b84101617156200058f575081810a620005b6565b6200059b8383620004bd565b8060001904821115620005b257620005b2620004a7565b0290505b92915050565b6000620005cd60ff84168362000506565b9392505050565b8082028115828204841417620005b657620005b6620004a7565b80820180821115620005b657620005b6620004a7565b610c1a80620006146000396000f3fe608060405234801561001057600080fd5b50600436106100d45760003560e01c806342966c681161008157806395d89b411161005b57806395d89b41146101f1578063a9059cbb146101f9578063dd62ed3e1461020c57600080fd5b806342966c681461016357806370a08231146101765780638da5cb5b146101ac57600080fd5b806323b872dd116100b257806323b872dd1461012c578063313ce5671461013f57806340c10f191461014e57600080fd5b806306fdde03146100d9578063095ea7b3146100f757806318160ddd1461011a575b600080fd5b6100e1610252565b6040516100ee91906109d2565b60405180910390f35b61010a610105366004610a68565b6102e4565b60405190151581526020016100ee565b6002545b6040519081526020016100ee565b61010a61013a366004610a92565b6102fe565b604051601281526020016100ee565b61016161015c366004610a68565b610405565b005b610161610171366004610ace565b610494565b61011e610184366004610ae7565b73ffffffffffffffffffffffffffffffffffffffff1660009081526020819052604090205490565b6005546101cc9073ffffffffffffffffffffffffffffffffffffffff1681565b60405173ffffffffffffffffffffffffffffffffffffffff90911681526020016100ee565b6100e16104a1565b61010a610207366004610a68565b6104b0565b61011e61021a366004610b09565b73ffffffffffffffffffffffffffffffffffffffff918216600090815260016020908152604080832093909416825291909152205490565b60606003805461026190610b3c565b80601f016020809104026020016040519081016040528092919081815260200182805461028d90610b3c565b80156102da5780601f106102af576101008083540402835291602001916102da565b820191906000526020600020905b8154815290600101906020018083116102bd57829003601f168201915b5050505050905090565b6000336102f2818585610569565b60019150505b92915050565b600073ffffffffffffffffffffffffffffffffffffffff83166103a8576040517f08c379a000000000000000000000000000000000000000000000000000000000815260206004820152602360248201527f45524332303a207472616e7366657220746f20746865207a65726f206164647260448201527f657373000000000000000000000000000000000000000000000000000000000060648201526084015b60405180910390fd5b6103b384848461057b565b73ffffffffffffffffffffffffffffffffffffffff84166000908152600160209081526040808320338085529252909120546103fb9186916103f6908690610bbe565b610569565b5060019392505050565b60055473ffffffffffffffffffffffffffffffffffffffff163314610486576040517f08c379a000000000000000000000000000000000000000000000000000000000815260206004820152601a60248201527f4f6e6c79206f776e65722063616e206d696e7420746f6b656e73000000000000604482015260640161039f565b6104908282610626565b5050565b61049e3382610682565b50565b60606004805461026190610b3c565b600073ffffffffffffffffffffffffffffffffffffffff8316610555576040517f08c379a000000000000000000000000000000000000000000000000000000000815260206004820152602360248201527f45524332303a207472616e7366657220746f20746865207a65726f206164647260448201527f6573730000000000000000000000000000000000000000000000000000000000606482015260840161039f565b61056033848461057b565b50600192915050565b61057683838360016106de565b505050565b73ffffffffffffffffffffffffffffffffffffffff83166105cb576040517f96c6fd1e0000000000000000000000000000000000000000000000000000000081526000600482015260240161039f565b73ffffffffffffffffffffffffffffffffffffffff821661061b576040517fec442f050000000000000000000000000000000000000000000000000000000081526000600482015260240161039f565b610576838383610827565b73ffffffffffffffffffffffffffffffffffffffff8216610676576040517fec442f050000000000000000000000000000000000000000000000000000000081526000600482015260240161039f565b61049060008383610827565b73ffffffffffffffffffffffffffffffffffffffff82166106d2576040517f96c6fd1e0000000000000000000000000000000000000000000000000000000081526000600482015260240161039f565b61049082600083610827565b73ffffffffffffffffffffffffffffffffffffffff841661072e576040517fe602df050000000000000000000000000000000000000000000000000000000081526000600482015260240161039f565b73ffffffffffffffffffffffffffffffffffffffff831661077e576040517f94280d620000000000000000000000000000000000000000000000000000000081526000600482015260240161039f565b73ffffffffffffffffffffffffffffffffffffffff80851660009081526001602090815260408083209387168352929052208290558015610821578273ffffffffffffffffffffffffffffffffffffffff168473ffffffffffffffffffffffffffffffffffffffff167f8c5be1e5ebec7d5bd14f71427d1e84f3dd0314c0f7b2291e5b200ac8c7c3b9258460405161081891815260200190565b60405180910390a35b50505050565b73ffffffffffffffffffffffffffffffffffffffff831661085f5780600260008282546108549190610bd1565b909155506109119050565b73ffffffffffffffffffffffffffffffffffffffff8316600090815260208190526040902054818110156108e5576040517fe450d38c00000000000000000000000000000000000000000000000000000000815273ffffffffffffffffffffffffffffffffffffffff85166004820152602481018290526044810183905260640161039f565b73ffffffffffffffffffffffffffffffffffffffff841660009081526020819052604090209082900390555b73ffffffffffffffffffffffffffffffffffffffff821661093a57600280548290039055610966565b73ffffffffffffffffffffffffffffffffffffffff821660009081526020819052604090208054820190555b8173ffffffffffffffffffffffffffffffffffffffff168373ffffffffffffffffffffffffffffffffffffffff167fddf252ad1be2c89b69c2b068fc378daa952ba7f163c4a11628f55a4df523b3ef836040516109c591815260200190565b60405180910390a3505050565b60006020808352835180602085015260005b81811015610a00578581018301518582016040015282016109e4565b5060006040828601015260407fffffffffffffffffffffffffffffffffffffffffffffffffffffffffffffffe0601f8301168501019250505092915050565b803573ffffffffffffffffffffffffffffffffffffffff81168114610a6357600080fd5b919050565b60008060408385031215610a7b57600080fd5b610a8483610a3f565b946020939093013593505050565b600080600060608486031215610aa757600080fd5b610ab084610a3f565b9250610abe60208501610a3f565b9150604084013590509250925092565b600060208284031215610ae057600080fd5b5035919050565b600060208284031215610af957600080fd5b610b0282610a3f565b9392505050565b60008060408385031215610b1c57600080fd5b610b2583610a3f565b9150610b3360208401610a3f565b90509250929050565b600181811c90821680610b5057607f821691505b602082108103610b89577f4e487b7100000000000000000000000000000000000000000000000000000000600052602260045260246000fd5b50919050565b7f4e487b7100000000000000000000000000000000000000000000000000000000600052601160045260246000fd5b818103818111156102f8576102f8610b8f565b808201808211156102f8576102f8610b8f56fea2646970667358221220a943c44d0bc401789404c4afbabeef1bffb97c530261499315186f4776fd60fc64736f6c63430008180033",
  "linkReferences": {},
  "deployedLinkReferences": {}
}